:10F0000002F00375817112FBB0E582600302F054D7
:10F01000758200758300758400758500780079001D
:10F02000E8496012E475860093A3758601F0A31881
:10F03000B8FFED1980EA7586007582007583007C43
:10F04000007D00EC4D600AE4F0A31CBCFFF51D80C0
:10F05000F212FB3212F62880FE75CBFF75CAF775E7
:10F06000C83475985222AA82200013BA0A0810994F
:10F070000280FB75990D10990280FB8A99228AC142
:10F0800022C20120001510980280FBAA99300217B5
:10F090008A82C00212F066D002800C30C0FDAAC184
:10F0A000E59530E102D2018A822212F081AA82C063
:10F0B0000212F066D0028A8222AA82AB83ACF08A66
:10F0C000828B838CF012FB37FDFE60188E82C002AB
:10F0D000C003C00412F066D004D003D0020ABA0004
:10F0E000DE0B80DB22E582FA30E60474092AFA742A
:10F0F0000F5AF5822212F0AA12F0E5E582C454F00C
:10F10000F50812F0AA12F0E5E5824208850882228D
:10F11000AA82AB8375DDFF8A048CE18B028AE275DB
:10F12000E3018514DC75DB0775DB0575DB0775DB33
:10F130000F22AA82AB8375DD008A048CE18B028AE0
:10F14000E275E30175DB0775DB0385DC8275DB07A0
:10F1500075DB0F227514AA900AAA12F110751455C6
:10F1600090055512F110751480900AAA12F11075CD
:10F1700014AA900AAA12F11075145590055512F1AF
:10F180001075143090000012F11090000012F1324E
:10F19000AA82BAFFF522E515F022E0F58222AA82C2
:10F1A000AB837514AA900AAAC002C00312F11075AD
:10F1B000145590055512F1107514A0900AAA12F179
:10F1C00010D003D0028509148A828B83C002C00349
:10F1D00012F110D003D0028A828B83C002C00312C6
:10F1E000F132AC82D003D002ECB509EB2275C30139
:10F1F00075E30175DD0090000075DB0F8582E18508
:10F2000083E275DB0775DB03E5DC75DB0FF0A3E557
:10F210008330E7E875C3007581070200002212F011
:10F22000AA858210743AB51002800302F33D75116D
:10F230002E12F0F585820D850D0F12F0F5AA828A47
:10F240000A750B00AA0AEA250FF50F850A0B750A45
:10F250000012F0F5858210E510250FF50FAA107B3E
:10F2600000EA250AF50AEB350BF50B12F0F585825D
:10F270000EE50E250FF50F750C00C3E50C950D502E
:10F280001D12F0F585821074C0250C4007E50C2492
:10F2900021F8A610E510250FF50F050C80DC12F003
:10F2A000F5E582FA250FF50FE50D24BF5003750F24
:10F2B00001E50F600302F32FAA0EBA00028014BA10
:10F2C00001028060BA03028050BA045C12F154D289
:10F2D000F98061750C00C3E50C950D5057E50C24C1
:10F2E00021F88609850A82850B8312F19E850A82A0
:10F2F000850B8312F132AA82E50C2421F88603EAF9
:10F30000B503028005751121D2E87401250AF50ABA
:10F31000E4350BF50B050C80BD90FA5C75F080129E
:10F32000F0B98010D2FA800C75113FD2EA800575D1
:10F330001158D2E985118212F06602F21E7460B58E
:10F340001001227455B51002800302F21E75E80008
:10F3500075950075F80102F21EAA82AB83ACF07DB0
:10F36000007E008A828B838CF012FB37FF700302D1
:10F37000F3EDC3EF648094B0401174B98FF063F083
:10F380008095F04006EF24D0FF80398A828B838CF1
:10F39000F012FB37F8C3648094C1401174C688F042
:10F3A00063F08095F0400674C928FF8017C3E864B5
:10F3B0008094E1403874E688F063F08095F0402D49
:10F3C00074A928FF8D16EEC454F0C516C4C5166581
:10F3D00016C51654F0C5166516F5177800EF2516F4
:10F3E000FDE83517FE0ABA00010B02F3638D828E29
:10F3F0008322E582FAC4540F90FA4B93F582C0023F
:10F4000012F066D002740F5A90FA4B93F58202F014
:10F4100066AA82AB838B048C82C002C00312F3F213
:10F42000D003D0028A8202F3F27AFFABE8AC958B6C
:10F43000E88C95EB6044EB30E0047A008036EB30EA
:10F44000E1047A01802EEB30E2047A028026EB3070
:10F45000E3047A03801EEB30E4047A048016EB3078
:10F46000E5047A05800EEB30E6047A068006EB3080
:10F47000E7027A07E5E8604780FAEC6042EC30E0AA
:10F48000047A088036EC30E1047A09802EEC30E210
:10F49000047A0A8026EC30E3047A0B801EEC30E418
:10F4A000047A0C8016EC30E5047A0D800EEC30E620
:10F4B000047A0E8006EC30E7027A0FE59570FC8A3C
:10F4C000822230FBFD30FAFD75C30175E30175DD65
:10F4D0000090000075DB0F8582E18583E275DB0714
:10F4E00075DB03E5DC75DB0FF0A3E58330E7E87A35
:10F4F000007B008B048A05ECC4540F90FA6093F5EE
:10F5000094740F5C90FA6093F593EDC4540F90FAE5
:10F510006093F592740F5D90FA6093F5918A828BF7
:10F5200083C002C00312F19AAC82740F5C90FA603F
:10F5300093F58EECC4540F90FA6093F58FC00412CB
:10F54000F429AD82D004D003D002BD10005041E5B3
:10F550009E30E020EBC454F0CAC4CA6ACA54F0CA50
:10F560006AFB5302F053037F8D067F00EE4202EFE9
:10F570004203801CECC454F0FC5304F0ED42048CB4
:10F58000158A828B83C002C00312F196D003D00289
:10F5900020FB1F30FBFDC2F9C2FA0ABA00010BC3FF
:10F5A00074FF9A747F9B400302F4F37A007B00029D
:10F5B000F4F320FA1F30FAFDC2F9C2FA1ABAFF01B9
:10F5C0001BC374FF9A747F9B400302F4F37AFF7BA2
:10F5D0007F02F4F330F90302F4F330F9FDC002C006
:10F5E0000312F154D003D002D2F97C007D00748064
:10F5F0002D40308C828D83C002C003C004C0051230
:10F60000F19A858209D005D0048C828D83C004C014
:10F610000512F19ED005D004D003D0020CBC00CE60
:10F620000D80CBD2FA02F4F375DB0F30F90312F13F
:10F63000ED75C30130F9FD75E800759500759E0004
:10F6400075F8017591FF7592FF7593FF7594FF75BD
:10F650008EFF758FFF7596FF7597FF12F059D2C216
:10F6600075C100D2C330C010AAC1BA5506D2FFD2AC
:10F6700000802230C1FD8AC130980FAA99C298BA81
:10F680005504C200800FC2998A9920FAD820FBD570
:10F6900012F4C280D012F21EC200D20290FA70752B
:10F6A000F08012F0B990FAAD75F08012F0B99000C8
:10F6B0002175F04012FBB47514AF7515FA751680FC
:10F6C00090002175F04012FB53E5828583F045F0F0
:10F6D000601E7514B17515FA75168090002175F0CD
:10F6E0004012FB53E5828583F045F0600302F7CFBB
:10F6F00090FAB375F08012F0B990002175F04012C5
:10F70000FBB490002175F04012F359E5828583F037
:10F7100054F0F51285F0137D007E00C3ED9480EE69
:10F720009400400302F7C6ED540F701BE5122DF54F
:10F7300082E5133EF583C005C00612F41175823AC6
:10F7400012F066D006D005E5122DFFE5133EFB8FC3
:10F75000828B83E0FAF582C002C005C00612F3F284
:10F7600075823A12F066D006D005D002EA24DF5046
:10F7700012BA7F00500D740F5DFB7C002461F8A667
:10F7800002800B740F5DFA7B002461F8762E740FF3
:10F790005DFA7B00BA0F27BB00247871760090FADF
:10F7A000BD75F080C005C00612F0B990006175F01B
:10F7B0004012F0B975820A12F066D006D0050DBD70
:10F7C00000010E02F71B75820A12F06602F6A5759B
:10F7D00014C07515FA75168090002175F04012FB63
:10F7E00053E5828583F045F0601B7514C27515FAE8
:10F7F00075168090002175F04012FB53E5828583D9
:10F80000F045F0705090FAB375F08012F0B99000A6
:10F810002175F04012FBB490002175F04012F359AD
:10F8200085821285831390FAC475F08012F0B99026
:10F83000002175F04012FBB490002175F04012F3E6
:10F8400059E5828583F0FA8A09851282851383122D
:10F85000F19E02F6A57514CB7515FA751680900009
:10F860002175F04012FB53E5828583F045F0601B63
:10F870007514CD7515FA75168090002175F040123B
:10F88000FB53E5828583F045F0703F90FACF75F029
:10F890008012F0B990002175F04012FBB47514F09D
:10F8A0007515FA75168090002175F04012FB53E52E
:10F8B000828583F045F0600302F6A512F15490FAB8
:10F8C000F275F08012F0B902F6A57514007515FBFB
:10F8D00075168090002175F04012FB53E5828583F8
:10F8E000F045F0601B7514027515FB7516809000CD
:10F8F0002175F04012FB53E5828583F045F0706C72
:10F9000090FAB375F08012F0B990002175F04012B2
:10F91000FBB490002175F04012F359858212858363
:10F920001390FB0475F08012F0B990002175F0403F
:10F9300012FBB4AA12AB137C007D00EC2421F886E4
:10F9400006BE000302F6A58A828B830ABA00010B69
:10F950008E09C002C003C004C00512F19ED005D0BC
:10F9600004D003D0020CBC00D20D80CF75140D75ED
:10F9700015FB75168090002175F04012FB53E5824F
:10F980008583F045F0601B75140F7515FB751680A7
:10F9900090002175F04012FB53E5828583F045F01D
:10F9A000703D7A007B00C3EA9460EB94005024EA37
:10F9B00024EBF582EB34F9F583E493F5098A828B25
:10F9C00083C002C00312F19ED003D0020ABA00D64F
:10F9D0000B80D390FB1175F08012F0B902F6A59060
:10F9E000FB2B75F08012F0B902F6A50200107A3BED
:10F9F00079FA78FAD8FED9FADAF62275817F7B0097
:10FA00007C00EC540F90004C93F591ECC4540F9093
:10FA1000004C93F592EB540F90004C93F593EBC48C
:10FA2000540F90004C93F594120003EC2401D4FC85
:10FA3000EB3400D4FB80CBC0F9A4B0999282F8805B
:10FA4000908883C6A1868E000000003031323334A6
:10FA50003536373839414243444546004445310044
:10FA6000C0F9A4B0999282F880908883C6A1868E4E
:10FA70000A526561647920666F7220636F6D6D61F3
:10FA80006E6473202844756D702C2050726F6772FD
:10FA9000616D2C2045726173652C20537472696E00
:10FAA0002C2054657374636F6465290A003E00441A
:10FAB000006400416464726573733A200020200082
:10FAC00050007000446174613A20004500650053A5
:10FAD000686F756C6420657261736520466C617334
:10FAE00068206D656D6F72793F2028792F6E29002F
:10FAF0007900466C617368206572617365640A0001
:10FB000053007300537472696E673A200054007496
:10FB100000546573742070726F6772616D20776135
:10FB20007320666C61736865640A00576861743F8E
:10FB30000A00C200C2022220F71430F6148883A8FB
:10FB40008220F507E6A88375830022E280F7E4931C
:10FB500022E022AA82AB83ACF0AD14AE15AF168AB8
:10FB6000828B838CF012FB37F87900C002C003C08F
:10FB7000048D828E838FF012FB37FA7B00E8C39AE4
:10FB8000F8E99BF988178918D004D003D002E84916
:10FB900070178D828E838FF012FB37600C0ABA00CB
:10FBA000010B0DBD00B90E80B68517828518832222
:10FBB00075820022AA82AB83ACF07D007E00C00279
:10FBC000C003C004C005C00612F081AF82D006D0C9
:10FBD00005D004D003D002BF0802800ABF0A028009
:10FBE00035BF0D438030ED4E60D4758220C002C019
:10FBF00003C004C005C00612F06675820812F066E4
:10FC0000D006D005D004D003D0021ABAFF011B1DC4
:10FC1000BDFF011E80A88A828B838CF0E412FC3E1B
:10FC20008A828B838CF0228A828B838CF0EF12FC89
:10FC30003EA3AA82AB830DBD00010E02FBBE20F7DE
:10FC40001030F6118883A88220F507F6A883758303
:10FC50000022F280F7F02200000000000000000007
:10FFE00075C300002200000075C30100220000005C
:00000001FF
